{
  "_format": "hh-sol-artifact-1",
  "contractName": "JourCoin",
  "sourceName": "contracts/jourcoin.sol",
  "abi": [
    {
      "inputs": [],
      "stateMutability": "nonpayable",
      "type": "constructor"
    },
    {
      "inputs": [
        {
          "internalType": "address",
          "name": "spender",
          "type": "address"
        },
        {
          "internalType": "uint256",
          "name": "allowance",
          "type": "uint256"
        },
        {
          "internalType": "uint256",
          "name": "needed",
          "type": "uint256"
        }
      ],
      "name": "ERC20InsufficientAllowance",
      "type": "error"
    },
    {
      "inputs": [
        {
          "internalType": "address",
          "name": "sender",
          "type": "address"
        },
        {
          "internalType": "uint256",
          "name": "balance",
          "type": "uint256"
        },
        {
          "internalType": "uint256",
          "name": "needed",
          "type": "uint256"
        }
      ],
      "name": "ERC20InsufficientBalance",
      "type": "error"
    },
    {
      "inputs": [
        {
          "internalType": "address",
          "name": "approver",
          "type": "address"
        }
      ],
      "name": "ERC20InvalidApprover",
      "type": "error"
    },
    {
      "inputs": [
        {
          "internalType": "address",
          "name": "receiver",
          "type": "address"
        }
      ],
      "name": "ERC20InvalidReceiver",
      "type": "error"
    },
    {
      "inputs": [
        {
          "internalType": "address",
          "name": "sender",
          "type": "address"
        }
      ],
      "name": "ERC20InvalidSender",
      "type": "error"
    },
    {
      "inputs": [
        {
          "internalType": "address",
          "name": "spender",
          "type": "address"
        }
      ],
      "name": "ERC20InvalidSpender",
      "type": "error"
    },
    {
      "inputs": [],
      "name": "ReentrancyGuardReentrantCall",
      "type": "error"
    },
    {
      "anonymous": false,
      "inputs": [
        {
          "indexed": true,
          "internalType": "address",
          "name": "owner",
          "type": "address"
        },
        {
          "indexed": true,
          "internalType": "address",
          "name": "spender",
          "type": "address"
        },
        {
          "indexed": false,
          "internalType": "uint256",
          "name": "value",
          "type": "uint256"
        }
      ],
      "name": "Approval",
      "type": "event"
    },
    {
      "anonymous": false,
      "inputs": [
        {
          "indexed": true,
          "internalType": "address",
          "name": "from",
          "type": "address"
        },
        {
          "indexed": true,
          "internalType": "address",
          "name": "to",
          "type": "address"
        },
        {
          "indexed": false,
          "internalType": "uint256",
          "name": "value",
          "type": "uint256"
        }
      ],
      "name": "Transfer",
      "type": "event"
    },
    {
      "inputs": [],
      "name": "admin",
      "outputs": [
        {
          "internalType": "address",
          "name": "",
          "type": "address"
        }
      ],
      "stateMutability": "view",
      "type": "function"
    },
    {
      "inputs": [
        {
          "internalType": "address",
          "name": "owner",
          "type": "address"
        },
        {
          "internalType": "address",
          "name": "spender",
          "type": "address"
        }
      ],
      "name": "allowance",
      "outputs": [
        {
          "internalType": "uint256",
          "name": "",
          "type": "uint256"
        }
      ],
      "stateMutability": "view",
      "type": "function"
    },
    {
      "inputs": [
        {
          "internalType": "address",
          "name": "spender",
          "type": "address"
        },
        {
          "internalType": "uint256",
          "name": "value",
          "type": "uint256"
        }
      ],
      "name": "approve",
      "outputs": [
        {
          "internalType": "bool",
          "name": "",
          "type": "bool"
        }
      ],
      "stateMutability": "nonpayable",
      "type": "function"
    },
    {
      "inputs": [
        {
          "internalType": "address",
          "name": "account",
          "type": "address"
        }
      ],
      "name": "balanceOf",
      "outputs": [
        {
          "internalType": "uint256",
          "name": "",
          "type": "uint256"
        }
      ],
      "stateMutability": "view",
      "type": "function"
    },
    {
      "inputs": [],
      "name": "buyTokens",
      "outputs": [],
      "stateMutability": "payable",
      "type": "function"
    },
    {
      "inputs": [],
      "name": "decimals",
      "outputs": [
        {
          "internalType": "uint8",
          "name": "",
          "type": "uint8"
        }
      ],
      "stateMutability": "view",
      "type": "function"
    },
    {
      "inputs": [],
      "name": "maxPurchase",
      "outputs": [
        {
          "internalType": "uint256",
          "name": "",
          "type": "uint256"
        }
      ],
      "stateMutability": "view",
      "type": "function"
    },
    {
      "inputs": [],
      "name": "minPurchase",
      "outputs": [
        {
          "internalType": "uint256",
          "name": "",
          "type": "uint256"
        }
      ],
      "stateMutability": "view",
      "type": "function"
    },
    {
      "inputs": [],
      "name": "name",
      "outputs": [
        {
          "internalType": "string",
          "name": "",
          "type": "string"
        }
      ],
      "stateMutability": "view",
      "type": "function"
    },
    {
      "inputs": [],
      "name": "symbol",
      "outputs": [
        {
          "internalType": "string",
          "name": "",
          "type": "string"
        }
      ],
      "stateMutability": "view",
      "type": "function"
    },
    {
      "inputs": [],
      "name": "tokenPrice",
      "outputs": [
        {
          "internalType": "uint256",
          "name": "",
          "type": "uint256"
        }
      ],
      "stateMutability": "view",
      "type": "function"
    },
    {
      "inputs": [],
      "name": "totalSupply",
      "outputs": [
        {
          "internalType": "uint256",
          "name": "",
          "type": "uint256"
        }
      ],
      "stateMutability": "view",
      "type": "function"
    },
    {
      "inputs": [
        {
          "internalType": "address",
          "name": "to",
          "type": "address"
        },
        {
          "internalType": "uint256",
          "name": "value",
          "type": "uint256"
        }
      ],
      "name": "transfer",
      "outputs": [
        {
          "internalType": "bool",
          "name": "",
          "type": "bool"
        }
      ],
      "stateMutability": "nonpayable",
      "type": "function"
    },
    {
      "inputs": [
        {
          "internalType": "address",
          "name": "from",
          "type": "address"
        },
        {
          "internalType": "address",
          "name": "to",
          "type": "address"
        },
        {
          "internalType": "uint256",
          "name": "value",
          "type": "uint256"
        }
      ],
      "name": "transferFrom",
      "outputs": [
        {
          "internalType": "bool",
          "name": "",
          "type": "bool"
        }
      ],
      "stateMutability": "nonpayable",
      "type": "function"
    },
    {
      "inputs": [],
      "name": "withdraw",
      "outputs": [],
      "stateMutability": "nonpayable",
      "type": "function"
    }
  ],
  "bytecode": "0x60806040523480156200001157600080fd5b506040518060400160405280600881526020017f4a6f7572436f696e0000000000000000000000000000000000000000000000008152506040518060400160405280600381526020017f4a5243000000000000000000000000000000000000000000000000000000000081525081600390816200008f919062000646565b508060049081620000a1919062000646565b505050600160058190555033600660006101000a81548173ffffffffffffffffffffffffffffffffffffffff021916908373ffffffffffffffffffffffffffffffffffffffff160217905550620001093069d3c21bcecceda10000006200010f60201b60201c565b62000864565b600073ffffffffffffffffffffffffffffffffffffffff168273ffffffffffffffffffffffffffffffffffffffff1603620001845760006040517fec442f050000000000000000000000000000000000000000000000000000000081526004016200017b919062000772565b60405180910390fd5b62000198600083836200019c60201b60201c565b5050565b600073ffffffffffffffffffffffffffffffffffffffff168373ffffffffffffffffffffffffffffffffffffffff1603620001f2578060026000828254620001e59190620007be565b92505081905550620002c8565b60008060008573ffffffffffffffffffffffffffffffffffffffff1673ffffffffffffffffffffffffffffffffffffffff1681526020019081526020016000205490508181101562000281578381836040517fe450d38c00000000000000000000000000000000000000000000000000000000815260040162000278939291906200080a565b60405180910390fd5b8181036000808673ffffffffffffffffffffffffffffffffffffffff1673ffffffffffffffffffffffffffffffffffffffff16815260200190815260200160002081905550505b600073ffffffffffffffffffffffffffffffffffffffff168273ffffffffffffffffffffffffffffffffffffffff160362000313578060026000828254039250508190555062000360565b806000808473ffffffffffffffffffffffffffffffffffffffff1673ffffffffffffffffffffffffffffffffffffffff168152602001908152602001600020600082825401925050819055505b8173ffffffffffffffffffffffffffffffffffffffff168373ffffffffffffffffffffffffffffffffffffffff167fddf252ad1be2c89b69c2b068fc378daa952ba7f163c4a11628f55a4df523b3ef83604051620003bf919062000847565b60405180910390a3505050565b600081519050919050565b7f4e487b7100000000000000000000000000000000000000000000000000000000600052604160045260246000fd5b7f4e487b7100000000000000000000000000000000000000000000000000000000600052602260045260246000fd5b600060028204905060018216806200044e57607f821691505b60208210810362000464576200046362000406565b5b50919050565b60008190508160005260206000209050919050565b60006020601f8301049050919050565b600082821b905092915050565b600060088302620004ce7fffffffffffffffffffffffffffffffffffffffffffffffffffffffffffffffff826200048f565b620004da86836200048f565b95508019841693508086168417925050509392505050565b6000819050919050565b6000819050919050565b600062000527620005216200051b84620004f2565b620004fc565b620004f2565b9050919050565b6000819050919050565b620005438362000506565b6200055b62000552826200052e565b8484546200049c565b825550505050565b600090565b6200057262000563565b6200057f81848462000538565b505050565b5b81811015620005a7576200059b60008262000568565b60018101905062000585565b5050565b601f821115620005f657620005c0816200046a565b620005cb846200047f565b81016020851015620005db578190505b620005f3620005ea856200047f565b83018262000584565b50505b505050565b600082821c905092915050565b60006200061b60001984600802620005fb565b1980831691505092915050565b600062000636838362000608565b9150826002028217905092915050565b6200065182620003cc565b67ffffffffffffffff8111156200066d576200066c620003d7565b5b62000679825462000435565b62000686828285620005ab565b600060209050601f831160018114620006be5760008415620006a9578287015190505b620006b5858262000628565b86555062000725565b601f198416620006ce866200046a565b60005b82811015620006f857848901518255600182019150602085019450602081019050620006d1565b8683101562000718578489015162000714601f89168262000608565b8355505b6001600288020188555050505b505050505050565b600073ffffffffffffffffffffffffffffffffffffffff82169050919050565b60006200075a826200072d565b9050919050565b6200076c816200074d565b82525050565b600060208201905062000789600083018462000761565b92915050565b7f4e487b7100000000000000000000000000000000000000000000000000000000600052601160045260246000fd5b6000620007cb82620004f2565b9150620007d883620004f2565b9250828201905080821115620007f357620007f26200078f565b5b92915050565b6200080481620004f2565b82525050565b600060608201905062000821600083018662000761565b620008306020830185620007f9565b6200083f6040830184620007f9565b949350505050565b60006020820190506200085e6000830184620007f9565b92915050565b61149280620008746000396000f3fe6080604052600436106100e85760003560e01c806370a082311161008a578063a9059cbb11610059578063a9059cbb146102e8578063d0febe4c14610325578063dd62ed3e1461032f578063f851a4401461036c576100e8565b806370a082311461022a5780637ff9b5961461026757806395d89b4114610292578063977b055b146102bd576100e8565b806323b872dd116100c657806323b872dd14610180578063313ce567146101bd57806333b5b62e146101e85780633ccfd60b14610213576100e8565b806306fdde03146100ed578063095ea7b31461011857806318160ddd14610155575b600080fd5b3480156100f957600080fd5b50610102610397565b60405161010f9190610eb4565b60405180910390f35b34801561012457600080fd5b5061013f600480360381019061013a9190610f6f565b610429565b60405161014c9190610fca565b60405180910390f35b34801561016157600080fd5b5061016a61044c565b6040516101779190610ff4565b60405180910390f35b34801561018c57600080fd5b506101a760048036038101906101a2919061100f565b610456565b6040516101b49190610fca565b60405180910390f35b3480156101c957600080fd5b506101d2610485565b6040516101df919061107e565b60405180910390f35b3480156101f457600080fd5b506101fd61048e565b60405161020a9190610ff4565b60405180910390f35b34801561021f57600080fd5b50610228610493565b005b34801561023657600080fd5b50610251600480360381019061024c9190611099565b61058e565b60405161025e9190610ff4565b60405180910390f35b34801561027357600080fd5b5061027c6105d6565b6040516102899190610ff4565b60405180910390f35b34801561029e57600080fd5b506102a76105e0565b6040516102b49190610eb4565b60405180910390f35b3480156102c957600080fd5b506102d2610672565b6040516102df9190610ff4565b60405180910390f35b3480156102f457600080fd5b5061030f600480360381019061030a9190610f6f565b610678565b60405161031c9190610fca565b60405180910390f35b61032d61069b565b005b34801561033b57600080fd5b50610356600480360381019061035191906110c6565b610789565b6040516103639190610ff4565b60405180910390f35b34801561037857600080fd5b50610381610810565b60405161038e9190611115565b60405180910390f35b6060600380546103a69061115f565b80601f01602080910402602001604051908101604052809291908181526020018280546103d29061115f565b801561041f5780601f106103f45761010080835404028352916020019161041f565b820191906000526020600020905b81548152906001019060200180831161040257829003601f168201915b5050505050905090565b600080610434610836565b905061044181858561083e565b600191505092915050565b6000600254905090565b600080610461610836565b905061046e858285610850565b6104798585856108e4565b60019150509392505050565b60006012905090565b606481565b600660009054906101000a900473ffffffffffffffffffffffffffffffffffffffff1673ffffffffffffffffffffffffffffffffffffffff163373ffffffffffffffffffffffffffffffffffffffff1614610523576040517f08c379a000000000000000000000000000000000000000000000000000000000815260040161051a906111dc565b60405180910390fd5b600660009054906101000a900473ffffffffffffffffffffffffffffffffffffffff1673ffffffffffffffffffffffffffffffffffffffff166108fc479081150290604051600060405180830381858888f1935050505015801561058b573d6000803e3d6000fd5b50565b60008060008373ffffffffffffffffffffffffffffffffffffffff1673ffffffffffffffffffffffffffffffffffffffff168152602001908152602001600020549050919050565b655af3107a400081565b6060600480546105ef9061115f565b80601f016020809104026020016040519081016040528092919081815260200182805461061b9061115f565b80156106685780601f1061063d57610100808354040283529160200191610668565b820191906000526020600020905b81548152906001019060200180831161064b57829003601f168201915b5050505050905090565b6103e881565b600080610683610836565b90506106908185856108e4565b600191505092915050565b6106a36109d8565b655af3107a40003410156106ec576040517f08c379a00000000000000000000000000000000000000000000000000000000081526004016106e39061126e565b60405180910390fd5b60006064655af3107a40003461070291906112ec565b61070c919061131d565b90506064811015801561072157506103e88111155b610760576040517f08c379a0000000000000000000000000000000000000000000000000000000008152600401610757906113d1565b60405180910390fd5b61077e3033670de0b6b3a764000084610779919061131d565b6108e4565b50610787610a1e565b565b6000600160008473ffffffffffffffffffffffffffffffffffffffff1673ffffffffffffffffffffffffffffffffffffffff16815260200190815260200160002060008373ffffffffffffffffffffffffffffffffffffffff1673ffffffffffffffffffffffffffffffffffffffff16815260200190815260200160002054905092915050565b600660009054906101000a900473ffffffffffffffffffffffffffffffffffffffff1681565b600033905090565b61084b8383836001610a28565b505050565b600061085c8484610789565b90507fffffffffffffffffffffffffffffffffffffffffffffffffffffffffffffffff81146108de57818110156108ce578281836040517ffb8f41b20000000000000000000000000000000000000000000000000000000081526004016108c5939291906113f1565b60405180910390fd5b6108dd84848484036000610a28565b5b50505050565b600073ffffffffffffffffffffffffffffffffffffffff168373ffffffffffffffffffffffffffffffffffffffff16036109565760006040517f96c6fd1e00000000000000000000000000000000000000000000000000000000815260040161094d9190611115565b60405180910390fd5b600073ffffffffffffffffffffffffffffffffffffffff168273ffffffffffffffffffffffffffffffffffffffff16036109c85760006040517fec442f050000000000000000000000000000000000000000000000000000000081526004016109bf9190611115565b60405180910390fd5b6109d3838383610bff565b505050565b600260055403610a14576040517f3ee5aeb500000000000000000000000000000000000000000000000000000000815260040160405180910390fd5b6002600581905550565b6001600581905550565b600073ffffffffffffffffffffffffffffffffffffffff168473ffffffffffffffffffffffffffffffffffffffff1603610a9a5760006040517fe602df05000000000000000000000000000000000000000000000000000000008152600401610a919190611115565b60405180910390fd5b600073ffffffffffffffffffffffffffffffffffffffff168373ffffffffffffffffffffffffffffffffffffffff1603610b0c5760006040517f94280d62000000000000000000000000000000000000000000000000000000008152600401610b039190611115565b60405180910390fd5b81600160008673ffffffffffffffffffffffffffffffffffffffff1673ffffffffffffffffffffffffffffffffffffffff16815260200190815260200160002060008573ffffffffffffffffffffffffffffffffffffffff1673ffffffffffffffffffffffffffffffffffffffff168152602001908152602001600020819055508015610bf9578273ffffffffffffffffffffffffffffffffffffffff168473ffffffffffffffffffffffffffffffffffffffff167f8c5be1e5ebec7d5bd14f71427d1e84f3dd0314c0f7b2291e5b200ac8c7c3b92584604051610bf09190610ff4565b60405180910390a35b50505050565b600073ffffffffffffffffffffffffffffffffffffffff168373ffffffffffffffffffffffffffffffffffffffff1603610c51578060026000828254610c459190611428565b92505081905550610d24565b60008060008573ffffffffffffffffffffffffffffffffffffffff1673ffffffffffffffffffffffffffffffffffffffff16815260200190815260200160002054905081811015610cdd578381836040517fe450d38c000000000000000000000000000000000000000000000000000000008152600401610cd4939291906113f1565b60405180910390fd5b8181036000808673ffffffffffffffffffffffffffffffffffffffff1673ffffffffffffffffffffffffffffffffffffffff16815260200190815260200160002081905550505b600073ffffffffffffffffffffffffffffffffffffffff168273ffffffffffffffffffffffffffffffffffffffff1603610d6d5780600260008282540392505081905550610dba565b806000808473ffffffffffffffffffffffffffffffffffffffff1673ffffffffffffffffffffffffffffffffffffffff168152602001908152602001600020600082825401925050819055505b8173ffffffffffffffffffffffffffffffffffffffff168373ffffffffffffffffffffffffffffffffffffffff167fddf252ad1be2c89b69c2b068fc378daa952ba7f163c4a11628f55a4df523b3ef83604051610e179190610ff4565b60405180910390a3505050565b600081519050919050565b600082825260208201905092915050565b60005b83811015610e5e578082015181840152602081019050610e43565b60008484015250505050565b6000601f19601f8301169050919050565b6000610e8682610e24565b610e908185610e2f565b9350610ea0818560208601610e40565b610ea981610e6a565b840191505092915050565b60006020820190508181036000830152610ece8184610e7b565b905092915050565b600080fd5b600073ffffffffffffffffffffffffffffffffffffffff82169050919050565b6000610f0682610edb565b9050919050565b610f1681610efb565b8114610f2157600080fd5b50565b600081359050610f3381610f0d565b92915050565b6000819050919050565b610f4c81610f39565b8114610f5757600080fd5b50565b600081359050610f6981610f43565b92915050565b60008060408385031215610f8657610f85610ed6565b5b6000610f9485828601610f24565b9250506020610fa585828601610f5a565b9150509250929050565b60008115159050919050565b610fc481610faf565b82525050565b6000602082019050610fdf6000830184610fbb565b92915050565b610fee81610f39565b82525050565b60006020820190506110096000830184610fe5565b92915050565b60008060006060848603121561102857611027610ed6565b5b600061103686828701610f24565b935050602061104786828701610f24565b925050604061105886828701610f5a565b9150509250925092565b600060ff82169050919050565b61107881611062565b82525050565b6000602082019050611093600083018461106f565b92915050565b6000602082840312156110af576110ae610ed6565b5b60006110bd84828501610f24565b91505092915050565b600080604083850312156110dd576110dc610ed6565b5b60006110eb85828601610f24565b92505060206110fc85828601610f24565b9150509250929050565b61110f81610efb565b82525050565b600060208201905061112a6000830184611106565b92915050565b7f4e487b7100000000000000000000000000000000000000000000000000000000600052602260045260246000fd5b6000600282049050600182168061117757607f821691505b60208210810361118a57611189611130565b5b50919050565b7f4f6e6c792061646d696e2063616e207769746864726177000000000000000000600082015250565b60006111c6601783610e2f565b91506111d182611190565b602082019050919050565b600060208201905081810360008301526111f5816111b9565b9050919050565b7f4d696e696d756d20707572636861736520697320302e3030303120455448206660008201527f6f722031303020746f6b656e7300000000000000000000000000000000000000602082015250565b6000611258602d83610e2f565b9150611263826111fc565b604082019050919050565b600060208201905081810360008301526112878161124b565b9050919050565b7f4e487b7100000000000000000000000000000000000000000000000000000000600052601260045260246000fd5b7f4e487b7100000000000000000000000000000000000000000000000000000000600052601160045260246000fd5b60006112f782610f39565b915061130283610f39565b9250826113125761131161128e565b5b828204905092915050565b600061132882610f39565b915061133383610f39565b925082820261134181610f39565b91508282048414831517611358576113576112bd565b5b5092915050565b7f43616e20627579206265747765656e2031303020616e64203130303020746f6b60008201527f656e73206f6e6c79000000000000000000000000000000000000000000000000602082015250565b60006113bb602883610e2f565b91506113c68261135f565b604082019050919050565b600060208201905081810360008301526113ea816113ae565b9050919050565b60006060820190506114066000830186611106565b6114136020830185610fe5565b6114206040830184610fe5565b949350505050565b600061143382610f39565b915061143e83610f39565b9250828201905080821115611456576114556112bd565b5b9291505056fea26469706673582212201bf304b45d6c9a77c3d26b00fbaa6acff675931e77e485c3f5d437f2ab7f3e9c64736f6c63430008140033",
  "linkReferences": {},
  "deployedLinkReferences": {}
}